{
  "contractName": "TrophyChar",
  "abi": [
    {
      "inputs": [
        {
          "internalType": "address",
          "name": "_VRFCoordinator",
          "type": "address"
        },
        {
          "internalType": "address",
          "name": "_LinkToken",
          "type": "address"
        },
        {
          "internalType": "bytes32",
          "name": "_keyHash",
          "type": "bytes32"
        }
      ],
      "stateMutability": "nonpayable",
      "type": "constructor"
    },
    {
      "anonymous": false,
      "inputs": [
        {
          "indexed": true,
          "internalType": "address",
          "name": "owner",
          "type": "address"
        },
        {
          "indexed": true,
          "internalType": "address",
          "name": "approved",
          "type": "address"
        },
        {
          "indexed": true,
          "internalType": "uint256",
          "name": "tokenId",
          "type": "uint256"
        }
      ],
      "name": "Approval",
      "type": "event"
    },
    {
      "anonymous": false,
      "inputs": [
        {
          "indexed": true,
          "internalType": "address",
          "name": "owner",
          "type": "address"
        },
        {
          "indexed": true,
          "internalType": "address",
          "name": "operator",
          "type": "address"
        },
        {
          "indexed": false,
          "internalType": "bool",
          "name": "approved",
          "type": "bool"
        }
      ],
      "name": "ApprovalForAll",
      "type": "event"
    },
    {
      "anonymous": false,
      "inputs": [
        {
          "indexed": true,
          "internalType": "address",
          "name": "from",
          "type": "address"
        },
        {
          "indexed": true,
          "internalType": "address",
          "name": "to",
          "type": "address"
        },
        {
          "indexed": true,
          "internalType": "uint256",
          "name": "tokenId",
          "type": "uint256"
        }
      ],
      "name": "Transfer",
      "type": "event"
    },
    {
      "inputs": [],
      "name": "Linktoken",
      "outputs": [
        {
          "internalType": "address",
          "name": "",
          "type": "address"
        }
      ],
      "stateMutability": "view",
      "type": "function",
      "constant": true
    },
    {
      "inputs": [],
      "name": "VRFCoordinator",
      "outputs": [
        {
          "internalType": "address",
          "name": "",
          "type": "address"
        }
      ],
      "stateMutability": "view",
      "type": "function",
      "constant": true
    },
    {
      "inputs": [],
      "name": "add",
      "outputs": [
        {
          "internalType": "address",
          "name": "",
          "type": "address"
        }
      ],
      "stateMutability": "view",
      "type": "function",
      "constant": true
    },
    {
      "inputs": [
        {
          "internalType": "address",
          "name": "to",
          "type": "address"
        },
        {
          "internalType": "uint256",
          "name": "tokenId",
          "type": "uint256"
        }
      ],
      "name": "approve",
      "outputs": [],
      "stateMutability": "nonpayable",
      "type": "function"
    },
    {
      "inputs": [
        {
          "internalType": "address",
          "name": "owner",
          "type": "address"
        }
      ],
      "name": "balanceOf",
      "outputs": [
        {
          "internalType": "uint256",
          "name": "",
          "type": "uint256"
        }
      ],
      "stateMutability": "view",
      "type": "function",
      "constant": true
    },
    {
      "inputs": [
        {
          "internalType": "uint256",
          "name": "tokenId",
          "type": "uint256"
        }
      ],
      "name": "getApproved",
      "outputs": [
        {
          "internalType": "address",
          "name": "",
          "type": "address"
        }
      ],
      "stateMutability": "view",
      "type": "function",
      "constant": true
    },
    {
      "inputs": [
        {
          "internalType": "address",
          "name": "owner",
          "type": "address"
        },
        {
          "internalType": "address",
          "name": "operator",
          "type": "address"
        }
      ],
      "name": "isApprovedForAll",
      "outputs": [
        {
          "internalType": "bool",
          "name": "",
          "type": "bool"
        }
      ],
      "stateMutability": "view",
      "type": "function",
      "constant": true
    },
    {
      "inputs": [],
      "name": "keyHash",
      "outputs": [
        {
          "internalType": "bytes32",
          "name": "",
          "type": "bytes32"
        }
      ],
      "stateMutability": "view",
      "type": "function",
      "constant": true
    },
    {
      "inputs": [],
      "name": "name",
      "outputs": [
        {
          "internalType": "string",
          "name": "",
          "type": "string"
        }
      ],
      "stateMutability": "view",
      "type": "function",
      "constant": true
    },
    {
      "inputs": [
        {
          "internalType": "uint256",
          "name": "tokenId",
          "type": "uint256"
        }
      ],
      "name": "ownerOf",
      "outputs": [
        {
          "internalType": "address",
          "name": "",
          "type": "address"
        }
      ],
      "stateMutability": "view",
      "type": "function",
      "constant": true
    },
    {
      "inputs": [],
      "name": "randomResult",
      "outputs": [
        {
          "internalType": "uint256",
          "name": "",
          "type": "uint256"
        }
      ],
      "stateMutability": "view",
      "type": "function",
      "constant": true
    },
    {
      "inputs": [
        {
          "internalType": "bytes32",
          "name": "requestId",
          "type": "bytes32"
        },
        {
          "internalType": "uint256",
          "name": "randomness",
          "type": "uint256"
        }
      ],
      "name": "rawFulfillRandomness",
      "outputs": [],
      "stateMutability": "nonpayable",
      "type": "function"
    },
    {
      "inputs": [
        {
          "internalType": "address",
          "name": "from",
          "type": "address"
        },
        {
          "internalType": "address",
          "name": "to",
          "type": "address"
        },
        {
          "internalType": "uint256",
          "name": "tokenId",
          "type": "uint256"
        }
      ],
      "name": "safeTransferFrom",
      "outputs": [],
      "stateMutability": "nonpayable",
      "type": "function"
    },
    {
      "inputs": [
        {
          "internalType": "address",
          "name": "from",
          "type": "address"
        },
        {
          "internalType": "address",
          "name": "to",
          "type": "address"
        },
        {
          "internalType": "uint256",
          "name": "tokenId",
          "type": "uint256"
        },
        {
          "internalType": "bytes",
          "name": "_data",
          "type": "bytes"
        }
      ],
      "name": "safeTransferFrom",
      "outputs": [],
      "stateMutability": "nonpayable",
      "type": "function"
    },
    {
      "inputs": [
        {
          "internalType": "address",
          "name": "operator",
          "type": "address"
        },
        {
          "internalType": "bool",
          "name": "approved",
          "type": "bool"
        }
      ],
      "name": "setApprovalForAll",
      "outputs": [],
      "stateMutability": "nonpayable",
      "type": "function"
    },
    {
      "inputs": [
        {
          "internalType": "bytes4",
          "name": "interfaceId",
          "type": "bytes4"
        }
      ],
      "name": "supportsInterface",
      "outputs": [
        {
          "internalType": "bool",
          "name": "",
          "type": "bool"
        }
      ],
      "stateMutability": "view",
      "type": "function",
      "constant": true
    },
    {
      "inputs": [],
      "name": "symbol",
      "outputs": [
        {
          "internalType": "string",
          "name": "",
          "type": "string"
        }
      ],
      "stateMutability": "view",
      "type": "function",
      "constant": true
    },
    {
      "inputs": [
        {
          "internalType": "uint256",
          "name": "tokenId",
          "type": "uint256"
        }
      ],
      "name": "tokenURI",
      "outputs": [
        {
          "internalType": "string",
          "name": "",
          "type": "string"
        }
      ],
      "stateMutability": "view",
      "type": "function",
      "constant": true
    },
    {
      "inputs": [],
      "name": "tokensCount",
      "outputs": [
        {
          "internalType": "uint256",
          "name": "",
          "type": "uint256"
        }
      ],
      "stateMutability": "view",
      "type": "function",
      "constant": true
    },
    {
      "inputs": [
        {
          "internalType": "address",
          "name": "from",
          "type": "address"
        },
        {
          "internalType": "address",
          "name": "to",
          "type": "address"
        },
        {
          "internalType": "uint256",
          "name": "tokenId",
          "type": "uint256"
        }
      ],
      "name": "transferFrom",
      "outputs": [],
      "stateMutability": "nonpayable",
      "type": "function"
    },
    {
      "inputs": [
        {
          "internalType": "uint256",
          "name": "",
          "type": "uint256"
        }
      ],
      "name": "trophies",
      "outputs": [
        {
          "internalType": "uint256",
          "name": "tokenId",
          "type": "uint256"
        },
        {
          "internalType": "uint256",
          "name": "rarity",
          "type": "uint256"
        },
        {
          "internalType": "uint256",
          "name": "worth",
          "type": "uint256"
        },
        {
          "internalType": "string",
          "name": "name",
          "type": "string"
        },
        {
          "internalType": "uint256",
          "name": "levelPass",
          "type": "uint256"
        }
      ],
      "stateMutability": "view",
      "type": "function",
      "constant": true
    },
    {
      "inputs": [
        {
          "internalType": "address",
          "name": "",
          "type": "address"
        },
        {
          "internalType": "uint256",
          "name": "",
          "type": "uint256"
        }
      ],
      "name": "usersNft",
      "outputs": [
        {
          "internalType": "uint256",
          "name": "tokenId",
          "type": "uint256"
        },
        {
          "internalType": "uint256",
          "name": "rarity",
          "type": "uint256"
        },
        {
          "internalType": "uint256",
          "name": "worth",
          "type": "uint256"
        },
        {
          "internalType": "string",
          "name": "name",
          "type": "string"
        },
        {
          "internalType": "uint256",
          "name": "levelPass",
          "type": "uint256"
        }
      ],
      "stateMutability": "view",
      "type": "function",
      "constant": true
    },
    {
      "inputs": [
        {
          "internalType": "address",
          "name": "",
          "type": "address"
        }
      ],
      "name": "usersNftCount",
      "outputs": [
        {
          "internalType": "uint256",
          "name": "",
          "type": "uint256"
        }
      ],
      "stateMutability": "view",
      "type": "function",
      "constant": true
    },
    {
      "inputs": [
        {
          "internalType": "uint256",
          "name": "userProvidedSeed",
          "type": "uint256"
        },
        {
          "internalType": "string",
          "name": "name",
          "type": "string"
        },
        {
          "internalType": "uint256",
          "name": "levelPass",
          "type": "uint256"
        },
        {
          "internalType": "address",
          "name": "walletAddress",
          "type": "address"
        }
      ],
      "name": "requestNewRandomTrophy",
      "outputs": [
        {
          "internalType": "bytes32",
          "name": "",
          "type": "bytes32"
        }
      ],
      "stateMutability": "nonpayable",
      "type": "function"
    },
    {
      "inputs": [
        {
          "internalType": "uint256",
          "name": "tokenId",
          "type": "uint256"
        }
      ],
      "name": "getTokenURI",
      "outputs": [
        {
          "internalType": "string",
          "name": "",
          "type": "string"
        }
      ],
      "stateMutability": "view",
      "type": "function",
      "constant": true
    },
    {
      "inputs": [
        {
          "internalType": "uint256",
          "name": "tokenId",
          "type": "uint256"
        }
      ],
      "name": "getLevel",
      "outputs": [
        {
          "internalType": "uint256",
          "name": "",
          "type": "uint256"
        }
      ],
      "stateMutability": "view",
      "type": "function",
      "constant": true
    },
    {
      "inputs": [],
      "name": "getNumberOfTrophies",
      "outputs": [
        {
          "internalType": "uint256",
          "name": "",
          "type": "uint256"
        }
      ],
      "stateMutability": "view",
      "type": "function",
      "constant": true
    },
    {
      "inputs": [
        {
          "internalType": "uint256",
          "name": "tokenId",
          "type": "uint256"
        }
      ],
      "name": "getTrophyOverView",
      "outputs": [
        {
          "internalType": "string",
          "name": "",
          "type": "string"
        },
        {
          "internalType": "uint256",
          "name": "",
          "type": "uint256"
        },
        {
          "internalType": "uint256",
          "name": "",
          "type": "uint256"
        },
        {
          "internalType": "uint256",
          "name": "",
          "type": "uint256"
        }
      ],
      "stateMutability": "view",
      "type": "function",
      "constant": true
    },
    {
      "inputs": [
        {
          "internalType": "uint256",
          "name": "tokenId",
          "type": "uint256"
        }
      ],
      "name": "getTrophyStats",
      "outputs": [
        {
          "internalType": "uint256",
          "name": "",
          "type": "uint256"
        },
        {
          "internalType": "uint256",
          "name": "",
          "type": "uint256"
        }
      ],
      "stateMutability": "view",
      "type": "function",
      "constant": true
    }
  ],
  "bytecode": "0x60c06040523480156200001157600080fd5b5060405162004285380380620042858339818101604052810190620000379190620002c6565b82826040518060400160405280600a81526020017f54726f70687943686172000000000000000000000000000000000000000000008152506040518060400160405280600381526020017f54525000000000000000000000000000000000000000000000000000000000008152508160009080519060200190620000bd929190620001e8565b508060019080519060200190620000d6929190620001e8565b5050508173ffffffffffffffffffffffffffffffffffffffff1660a08173ffffffffffffffffffffffffffffffffffffffff1660601b815250508073ffffffffffffffffffffffffffffffffffffffff1660808173ffffffffffffffffffffffffffffffffffffffff1660601b81525050505082600860006101000a81548173ffffffffffffffffffffffffffffffffffffffff021916908373ffffffffffffffffffffffffffffffffffffffff1602179055508060078190555081600b60006101000a81548173ffffffffffffffffffffffffffffffffffffffff021916908373ffffffffffffffffffffffffffffffffffffffff160217905550655af3107a4000600981905550505050620003f3565b828054620001f6906200035a565b90600052602060002090601f0160209004810192826200021a576000855562000266565b82601f106200023557805160ff191683800117855562000266565b8280016001018555821562000266579182015b828111156200026557825182559160200191906001019062000248565b5b50905062000275919062000279565b5090565b5b80821115620002945760008160009055506001016200027a565b5090565b600081519050620002a981620003bf565b92915050565b600081519050620002c081620003d9565b92915050565b600080600060608486031215620002dc57600080fd5b6000620002ec8682870162000298565b9350506020620002ff8682870162000298565b92505060406200031286828701620002af565b9150509250925092565b600062000329826200033a565b9050919050565b6000819050919050565b600073ffffffffffffffffffffffffffffffffffffffff82169050919050565b600060028204905060018216806200037357607f821691505b602082108114156200038a576200038962000390565b5b50919050565b7f4e487b7100000000000000000000000000000000000000000000000000000000600052602260045260246000fd5b620003ca816200031c565b8114620003d657600080fd5b50565b620003e48162000330565b8114620003f057600080fd5b50565b60805160601c60a05160601c613e586200042d60003960008181610ce9015261238d01526000818161124501526123510152613e586000f3fe608060405234801561001057600080fd5b50600436106101cf5760003560e01c80636352211e11610104578063a22cb465116100a2578063c87b56dd11610071578063c87b56dd14610573578063cd0a9ff1146105a3578063d4995eb1146105d3578063e985e9c514610606576101cf565b8063a22cb465146104e9578063a64ed8ba14610505578063b167416714610523578063b88d4fde14610557576101cf565b806391e348f1116100de57806391e348f11461044a57806394985ddd1461047b57806395d89b4114610497578063a06bb50f146104b5576101cf565b80636352211e146103ba57806370a08231146103ea57806386481d401461041a576101cf565b80633bb3a24d1161017157806342842e0e1161014b57806342842e0e146103325780634f2be91f1461034e57806354cbd4dd1461036c57806361728f391461039c576101cf565b80633bb3a24d146102c65780633f13595a146102f657806342619f6614610314576101cf565b8063081812fc116101ad578063081812fc14610240578063095ea7b31461027057806323b872dd1461028c57806333b60863146102a8576101cf565b806301ffc9a7146101d457806306fdde031461020457806307ed17e314610222575b600080fd5b6101ee60048036038101906101e99190612d3a565b610636565b6040516101fb9190613623565b60405180910390f35b61020c610718565b60405161021991906136c7565b60405180910390f35b61022a6107aa565b604051610237919061357e565b60405180910390f35b61025a60048036038101906102559190612d8c565b6107d0565b604051610267919061357e565b60405180910390f35b61028a60048036038101906102859190612c99565b610855565b005b6102a660048036038101906102a19190612b93565b61096d565b005b6102b06109cd565b6040516102bd919061357e565b60405180910390f35b6102e060048036038101906102db9190612d8c565b6109f3565b6040516102ed91906136c7565b60405180910390f35b6102fe610a05565b60405161030b9190613935565b60405180910390f35b61031c610a12565b6040516103299190613935565b60405180910390f35b61034c60048036038101906103479190612b93565b610a18565b005b610356610a38565b604051610363919061357e565b60405180910390f35b61038660048036038101906103819190612b2e565b610a5e565b6040516103939190613935565b60405180910390f35b6103a4610a76565b6040516103b1919061363e565b60405180910390f35b6103d460048036038101906103cf9190612d8c565b610a7c565b6040516103e1919061357e565b60405180910390f35b61040460048036038101906103ff9190612b2e565b610b2e565b6040516104119190613935565b60405180910390f35b610434600480360381019061042f9190612d8c565b610be6565b6040516104419190613935565b60405180910390f35b610464600480360381019061045f9190612d8c565b610c43565b604051610472929190613950565b60405180910390f35b61049560048036038101906104909190612cfe565b610ce7565b005b61049f610d83565b6040516104ac91906136c7565b60405180910390f35b6104cf60048036038101906104ca9190612d8c565b610e15565b6040516104e0959493929190613979565b60405180910390f35b61050360048036038101906104fe9190612c5d565b610ee3565b005b61050d611064565b60405161051a9190613935565b60405180910390f35b61053d60048036038101906105389190612c99565b61106a565b60405161054e959493929190613979565b60405180910390f35b610571600480360381019061056c9190612be2565b611135565b005b61058d60048036038101906105889190612d8c565b611197565b60405161059a91906136c7565b60405180910390f35b6105bd60048036038101906105b89190612dde565b61123e565b6040516105ca919061363e565b60405180910390f35b6105ed60048036038101906105e89190612d8c565b611430565b6040516105fd94939291906136e9565b60405180910390f35b610620600480360381019061061b9190612b57565b611614565b60405161062d9190613623565b60405180910390f35b60007f80ac58cd000000000000000000000000000000000000000000000000000000007bffffffffffffffffffffffffffffffffffffffffffffffffffffffff1916827bffffffffffffffffffffffffffffffffffffffffffffffffffffffff1916148061070157507f5b5e139f000000000000000000000000000000000000000000000000000000007bffffffffffffffffffffffffffffffffffffffffffffffffffffffff1916827bffffffffffffffffffffffffffffffffffffffffffffffffffffffff1916145b806107115750610710826116a8565b5b9050919050565b60606000805461072790613c22565b80601f016020809104026020016040519081016040528092919081815260200182805461075390613c22565b80156107a05780601f10610775576101008083540402835291602001916107a0565b820191906000526020600020905b81548152906001019060200180831161078357829003601f168201915b5050505050905090565b600b60009054906101000a900473ffffffffffffffffffffffffffffffffffffffff1681565b60006107db82611712565b61081a576040517f08c379a000000000000000000000000000000000000000000000000000000000815260040161081190613875565b60405180910390fd5b6004600083815260200190815260200160002060009054906101000a900473ffffffffffffffffffffffffffffffffffffffff169050919050565b600061086082610a7c565b90508073ffffffffffffffffffffffffffffffffffffffff168373ffffffffffffffffffffffffffffffffffffffff1614156108d1576040517f08c379a00000000000000000000000000000000000000000000000000000000081526004016108c8906138f5565b60405180910390fd5b8073ffffffffffffffffffffffffffffffffffffffff166108f061177e565b73ffffffffffffffffffffffffffffffffffffffff16148061091f575061091e8161091961177e565b611614565b5b61095e576040517f08c379a0000000000000000000000000000000000000000000000000000000008152600401610955906137f5565b60405180910390fd5b6109688383611786565b505050565b61097e61097861177e565b8261183f565b6109bd576040517f08c379a00000000000000000000000000000000000000000000000000000000081526004016109b490613915565b60405180910390fd5b6109c883838361191d565b505050565b600860009054906101000a900473ffffffffffffffffffffffffffffffffffffffff1681565b60606109fe82611197565b9050919050565b6000600e80549050905090565b600a5481565b610a3383838360405180602001604052806000815250611135565b505050565b600d60009054906101000a900473ffffffffffffffffffffffffffffffffffffffff1681565b60156020528060005260406000206000915090505481565b60075481565b6000806002600084815260200190815260200160002060009054906101000a900473ffffffffffffffffffffffffffffffffffffffff169050600073ffffffffffffffffffffffffffffffffffffffff168173ffffffffffffffffffffffffffffffffffffffff161415610b25576040517f08c379a0000000000000000000000000000000000000000000000000000000008152600401610b1c90613835565b60405180910390fd5b80915050919050565b60008073ffffffffffffffffffffffffffffffffffffffff168273ffffffffffffffffffffffffffffffffffffffff161415610b9f576040517f08c379a0000000000000000000000000000000000000000000000000000000008152600401610b9690613815565b60405180910390fd5b600360008373ffffffffffffffffffffffffffffffffffffffff1673ffffffffffffffffffffffffffffffffffffffff168152602001908152602001600020549050919050565b6000610c3c600e8381548110610c25577f4e487b7100000000000000000000000000000000000000000000000000000000600052603260045260246000fd5b906000526020600020906005020160010154611b79565b9050919050565b600080600e8381548110610c80577f4e487b7100000000000000000000000000000000000000000000000000000000600052603260045260246000fd5b906000526020600020906005020160010154600e8481548110610ccc577f4e487b7100000000000000000000000000000000000000000000000000000000600052603260045260246000fd5b90600052602060002090600502016002015491509150915091565b7f000000000000000000000000000000000000000000000000000000000000000073ffffffffffffffffffffffffffffffffffffffff163373ffffffffffffffffffffffffffffffffffffffff1614610d75576040517f08c379a0000000000000000000000000000000000000000000000000000000008152600401610d6c906138d5565b60405180910390fd5b610d7f8282611bd6565b5050565b606060018054610d9290613c22565b80601f0160208091040260200160405190810160405280929190818152602001828054610dbe90613c22565b8015610e0b5780601f10610de057610100808354040283529160200191610e0b565b820191906000526020600020905b815481529060010190602001808311610dee57829003601f168201915b5050505050905090565b600e8181548110610e2557600080fd5b9060005260206000209060050201600091509050806000015490806001015490806002015490806003018054610e5a90613c22565b80601f0160208091040260200160405190810160405280929190818152602001828054610e8690613c22565b8015610ed35780601f10610ea857610100808354040283529160200191610ed3565b820191906000526020600020905b815481529060010190602001808311610eb657829003601f168201915b5050505050908060040154905085565b610eeb61177e565b73ffffffffffffffffffffffffffffffffffffffff168273ffffffffffffffffffffffffffffffffffffffff161415610f59576040517f08c379a0000000000000000000000000000000000000000000000000000000008152600401610f5090613795565b60405180910390fd5b8060056000610f6661177e565b73ffffffffffffffffffffffffffffffffffffffff1673ffffffffffffffffffffffffffffffffffffffff16815260200190815260200160002060008473ffffffffffffffffffffffffffffffffffffffff1673ffffffffffffffffffffffffffffffffffffffff16815260200190815260200160002060006101000a81548160ff0219169083151502179055508173ffffffffffffffffffffffffffffffffffffffff1661101361177e565b73ffffffffffffffffffffffffffffffffffffffff167f17307eab39ab6107e8899845ad3d59bd9653f200f220920489ca2b5937696c31836040516110589190613623565b60405180910390a35050565b600c5481565b6014602052816000526040600020602052806000526040600020600091509150508060000154908060010154908060020154908060030180546110ac90613c22565b80601f01602080910402602001604051908101604052809291908181526020018280546110d890613c22565b80156111255780601f106110fa57610100808354040283529160200191611125565b820191906000526020600020905b81548152906001019060200180831161110857829003601f168201915b5050505050908060040154905085565b61114661114061177e565b8361183f565b611185576040517f08c379a000000000000000000000000000000000000000000000000000000000815260040161117c90613915565b60405180910390fd5b6111918484848461212d565b50505050565b60606111a282611712565b6111e1576040517f08c379a00000000000000000000000000000000000000000000000000000000081526004016111d8906138b5565b60405180910390fd5b60006111eb612189565b9050600081511161120b5760405180602001604052806000815250611236565b80611215846121a0565b60405160200161122692919061355a565b6040516020818303038152906040525b915050919050565b60006009547f000000000000000000000000000000000000000000000000000000000000000073ffffffffffffffffffffffffffffffffffffffff166370a08231306040518263ffffffff1660e01b815260040161129c919061357e565b60206040518083038186803b1580156112b457600080fd5b505afa1580156112c8573d6000803e3d6000fd5b505050506040513d601f19601f820116820180604052508101906112ec9190612db5565b101561132d576040517f08c379a0000000000000000000000000000000000000000000000000000000008152600401611324906137b5565b60405180910390fd5b600061133e6007546009548861234d565b905084600f60008381526020019081526020016000209080519060200190611367929190612913565b50836010600083815260200190815260200160002081905550336011600083815260200190815260200160002060006101000a81548173ffffffffffffffffffffffffffffffffffffffff021916908373ffffffffffffffffffffffffffffffffffffffff160217905550826012600083815260200190815260200160002060006101000a81548173ffffffffffffffffffffffffffffffffffffffff021916908373ffffffffffffffffffffffffffffffffffffffff16021790555080915050949350505050565b60606000806000600e8581548110611471577f4e487b7100000000000000000000000000000000000000000000000000000000600052603260045260246000fd5b9060005260206000209060050201600301600e86815481106114bc577f4e487b7100000000000000000000000000000000000000000000000000000000600052603260045260246000fd5b906000526020600020906005020160020154600e8781548110611508577f4e487b7100000000000000000000000000000000000000000000000000000000600052603260045260246000fd5b9060005260206000209060050201600101546115249190613aa7565b61152d87610be6565b600e8881548110611567577f4e487b7100000000000000000000000000000000000000000000000000000000600052603260045260246000fd5b90600052602060002090600502016001015483805461158590613c22565b80601f01602080910402602001604051908101604052809291908181526020018280546115b190613c22565b80156115fe5780601f106115d3576101008083540402835291602001916115fe565b820191906000526020600020905b8154815290600101906020018083116115e157829003601f168201915b5050505050935093509350935093509193509193565b6000600560008473ffffffffffffffffffffffffffffffffffffffff1673ffffffffffffffffffffffffffffffffffffffff16815260200190815260200160002060008373ffffffffffffffffffffffffffffffffffffffff1673ffffffffffffffffffffffffffffffffffffffff16815260200190815260200160002060009054906101000a900460ff16905092915050565b60007f01ffc9a7000000000000000000000000000000000000000000000000000000007bffffffffffffffffffffffffffffffffffffffffffffffffffffffff1916827bffffffffffffffffffffffffffffffffffffffffffffffffffffffff1916149050919050565b60008073ffffffffffffffffffffffffffffffffffffffff166002600084815260200190815260200160002060009054906101000a900473ffffffffffffffffffffffffffffffffffffffff1673ffffffffffffffffffffffffffffffffffffffff1614159050919050565b600033905090565b816004600083815260200190815260200160002060006101000a81548173ffffffffffffffffffffffffffffffffffffffff021916908373ffffffffffffffffffffffffffffffffffffffff160217905550808273ffffffffffffffffffffffffffffffffffffffff166117f983610a7c565b73ffffffffffffffffffffffffffffffffffffffff167f8c5be1e5ebec7d5bd14f71427d1e84f3dd0314c0f7b2291e5b200ac8c7c3b92560405160405180910390a45050565b600061184a82611712565b611889576040517f08c379a0000000000000000000000000000000000000000000000000000000008152600401611880906137d5565b60405180910390fd5b600061189483610a7c565b90508073ffffffffffffffffffffffffffffffffffffffff168473ffffffffffffffffffffffffffffffffffffffff16148061190357508373ffffffffffffffffffffffffffffffffffffffff166118eb846107d0565b73ffffffffffffffffffffffffffffffffffffffff16145b8061191457506119138185611614565b5b91505092915050565b8273ffffffffffffffffffffffffffffffffffffffff1661193d82610a7c565b73ffffffffffffffffffffffffffffffffffffffff1614611993576040517f08c379a000000000000000000000000000000000000000000000000000000000815260040161198a90613895565b60405180910390fd5b600073ffffffffffffffffffffffffffffffffffffffff168273ffffffffffffffffffffffffffffffffffffffff161415611a03576040517f08c379a00000000000000000000000000000000000000000000000000000000081526004016119fa90613775565b60405180910390fd5b611a0e8383836124ae565b611a19600082611786565b6001600360008573ffffffffffffffffffffffffffffffffffffffff1673ffffffffffffffffffffffffffffffffffffffff1681526020019081526020016000206000828254611a699190613b2e565b925050819055506001600360008473ffffffffffffffffffffffffffffffffffffffff1673ffffffffffffffffffffffffffffffffffffffff1681526020019081526020016000206000828254611ac09190613aa7565b92505081905550816002600083815260200190815260200160002060006101000a81548173ffffffffffffffffffffffffffffffffffffffff021916908373ffffffffffffffffffffffffffffffffffffffff160217905550808273ffffffffffffffffffffffffffffffffffffffff168473ffffffffffffffffffffffffffffffffffffffff167fddf252ad1be2c89b69c2b068fc378daa952ba7f163c4a11628f55a4df523b3ef60405160405180910390a4505050565b6000806002600184611b8b9190613aa7565b611b959190613afd565b90508291505b81811015611bd0578091506002818285611bb59190613afd565b611bbf9190613aa7565b611bc99190613afd565b9050611b9b565b50919050565b6000600e8054905090506000606483611bef9190613cb1565b9050600060646103e885611c039190613cb1565b611c0d9190613afd565b9050600e6040518060a00160405280858152602001848152602001838152602001600f60008981526020019081526020016000208054611c4c90613c22565b80601f0160208091040260200160405190810160405280929190818152602001828054611c7890613c22565b8015611cc55780601f10611c9a57610100808354040283529160200191611cc5565b820191906000526020600020905b815481529060010190602001808311611ca857829003601f168201915b50505050508152602001601060008981526020019081526020016000205481525090806001815401808255809150506001900390600052602060002090600502016000909190919091506000820151816000015560208201518160010155604082015181600201556060820151816003019080519060200190611d49929190612913565b50608082015181600401555050600c6000815480929190611d6990613c54565b91905055506012600086815260200190815260200160002060009054906101000a900473ffffffffffffffffffffffffffffffffffffffff16600d60006101000a81548173ffffffffffffffffffffffffffffffffffffffff021916908373ffffffffffffffffffffffffffffffffffffffff1602179055506001601560006012600089815260200190815260200160002060009054906101000a900473ffffffffffffffffffffffffffffffffffffffff1673ffffffffffffffffffffffffffffffffffffffff1673ffffffffffffffffffffffffffffffffffffffff16815260200190815260200160002054611e619190613aa7565b601560006012600089815260200190815260200160002060009054906101000a900473ffffffffffffffffffffffffffffffffffffffff1673ffffffffffffffffffffffffffffffffffffffff1673ffffffffffffffffffffffffffffffffffffffff168152602001908152602001600020819055506040518060a00160405280848152602001838152602001828152602001600f60008881526020019081526020016000208054611f1290613c22565b80601f0160208091040260200160405190810160405280929190818152602001828054611f3e90613c22565b8015611f8b5780601f10611f6057610100808354040283529160200191611f8b565b820191906000526020600020905b815481529060010190602001808311611f6e57829003601f168201915b505050505081526020016010600088815260200190815260200160002054815250601460006012600089815260200190815260200160002060009054906101000a900473ffffffffffffffffffffffffffffffffffffffff1673ffffffffffffffffffffffffffffffffffffffff1673ffffffffffffffffffffffffffffffffffffffff168152602001908152602001600020600060156000601260008b815260200190815260200160002060009054906101000a900473ffffffffffffffffffffffffffffffffffffffff1673ffffffffffffffffffffffffffffffffffffffff1673ffffffffffffffffffffffffffffffffffffffff16815260200190815260200160002054815260200190815260200160002060008201518160000155602082015181600101556040820151816002015560608201518160030190805190602001906120db929190612913565b50608082015181600401559050506121266011600087815260200190815260200160002060009054906101000a900473ffffffffffffffffffffffffffffffffffffffff16846124b3565b5050505050565b61213884848461191d565b612144848484846124d1565b612183576040517f08c379a000000000000000000000000000000000000000000000000000000000815260040161217a90613735565b60405180910390fd5b50505050565b606060405180602001604052806000815250905090565b606060008214156121e8576040518060400160405280600181526020017f30000000000000000000000000000000000000000000000000000000000000008152509050612348565b600082905060005b6000821461221a57808061220390613c54565b915050600a826122139190613afd565b91506121f0565b60008167ffffffffffffffff81111561225c577f4e487b7100000000000000000000000000000000000000000000000000000000600052604160045260246000fd5b6040519080825280601f01601f19166020018201604052801561228e5781602001600182028036833780820191505090505b5090505b60008514612341576001826122a79190613b2e565b9150600a856122b69190613cb1565b60306122c29190613aa7565b60f81b8183815181106122fe577f4e487b7100000000000000000000000000000000000000000000000000000000600052603260045260246000fd5b60200101907effffffffffffffffffffffffffffffffffffffffffffffffffffffffffffff1916908160001a905350600a8561233a9190613afd565b9450612292565b8093505050505b919050565b60007f000000000000000000000000000000000000000000000000000000000000000073ffffffffffffffffffffffffffffffffffffffff16634000aea07f00000000000000000000000000000000000000000000000000000000000000008587866040516020016123c0929190613659565b6040516020818303038152906040526040518463ffffffff1660e01b81526004016123ed939291906135e5565b602060405180830381600087803b15801561240757600080fd5b505af115801561241b573d6000803e3d6000fd5b505050506040513d601f19601f8201168201806040525081019061243f9190612cd5565b506000612461858430600660008a815260200190815260200160002054612668565b9050600160066000878152602001908152602001600020546124839190613aa7565b60066000878152602001908152602001600020819055506124a485826126a4565b9150509392505050565b505050565b6124cd8282604051806020016040528060008152506126d7565b5050565b60006124f28473ffffffffffffffffffffffffffffffffffffffff16612732565b1561265b578373ffffffffffffffffffffffffffffffffffffffff1663150b7a0261251b61177e565b8786866040518563ffffffff1660e01b815260040161253d9493929190613599565b602060405180830381600087803b15801561255757600080fd5b505af192505050801561258857506040513d601f19601f820116820180604052508101906125859190612d63565b60015b61260b573d80600081146125b8576040519150601f19603f3d011682016040523d82523d6000602084013e6125bd565b606091505b50600081511415612603576040517f08c379a00000000000000000000000000000000000000000000000000000000081526004016125fa90613735565b60405180910390fd5b805181602001fd5b63150b7a0260e01b7bffffffffffffffffffffffffffffffffffffffffffffffffffffffff1916817bffffffffffffffffffffffffffffffffffffffffffffffffffffffff191614915050612660565b600190505b949350505050565b6000848484846040516020016126819493929190613682565b6040516020818303038152906040528051906020012060001c9050949350505050565b600082826040516020016126b992919061352e565b60405160208183030381529060405280519060200120905092915050565b6126e18383612745565b6126ee60008484846124d1565b61272d576040517f08c379a000000000000000000000000000000000000000000000000000000000815260040161272490613735565b60405180910390fd5b505050565b600080823b905060008111915050919050565b600073ffffffffffffffffffffffffffffffffffffffff168273ffffffffffffffffffffffffffffffffffffffff1614156127b5576040517f08c379a00000000000000000000000000000000000000000000000000000000081526004016127ac90613855565b60405180910390fd5b6127be81611712565b156127fe576040517f08c379a00000000000000000000000000000000000000000000000000000000081526004016127f590613755565b60405180910390fd5b61280a600083836124ae565b6001600360008473ffffffffffffffffffffffffffffffffffffffff1673ffffffffffffffffffffffffffffffffffffffff168152602001908152602001600020600082825461285a9190613aa7565b92505081905550816002600083815260200190815260200160002060006101000a81548173ffffffffffffffffffffffffffffffffffffffff021916908373ffffffffffffffffffffffffffffffffffffffff160217905550808273ffffffffffffffffffffffffffffffffffffffff16600073ffffffffffffffffffffffffffffffffffffffff167fddf252ad1be2c89b69c2b068fc378daa952ba7f163c4a11628f55a4df523b3ef60405160405180910390a45050565b82805461291f90613c22565b90600052602060002090601f0160209004810192826129415760008555612988565b82601f1061295a57805160ff1916838001178555612988565b82800160010185558215612988579182015b8281111561298757825182559160200191906001019061296c565b5b5090506129959190612999565b5090565b5b808211156129b257600081600090555060010161299a565b5090565b60006129c96129c484613a04565b6139d3565b9050828152602081018484840111156129e157600080fd5b6129ec848285613be0565b509392505050565b6000612a07612a0284613a34565b6139d3565b905082815260208101848484011115612a1f57600080fd5b612a2a848285613be0565b509392505050565b600081359050612a4181613daf565b92915050565b600081359050612a5681613dc6565b92915050565b600081519050612a6b81613dc6565b92915050565b600081359050612a8081613ddd565b92915050565b600081359050612a9581613df4565b92915050565b600081519050612aaa81613df4565b92915050565b600082601f830112612ac157600080fd5b8135612ad18482602086016129b6565b91505092915050565b600082601f830112612aeb57600080fd5b8135612afb8482602086016129f4565b91505092915050565b600081359050612b1381613e0b565b92915050565b600081519050612b2881613e0b565b92915050565b600060208284031215612b4057600080fd5b6000612b4e84828501612a32565b91505092915050565b60008060408385031215612b6a57600080fd5b6000612b7885828601612a32565b9250506020612b8985828601612a32565b9150509250929050565b600080600060608486031215612ba857600080fd5b6000612bb686828701612a32565b9350506020612bc786828701612a32565b9250506040612bd886828701612b04565b9150509250925092565b60008060008060808587031215612bf857600080fd5b6000612c0687828801612a32565b9450506020612c1787828801612a32565b9350506040612c2887828801612b04565b925050606085013567ffffffffffffffff811115612c4557600080fd5b612c5187828801612ab0565b91505092959194509250565b60008060408385031215612c7057600080fd5b6000612c7e85828601612a32565b9250506020612c8f85828601612a47565b9150509250929050565b60008060408385031215612cac57600080fd5b6000612cba85828601612a32565b9250506020612ccb85828601612b04565b9150509250929050565b600060208284031215612ce757600080fd5b6000612cf584828501612a5c565b91505092915050565b60008060408385031215612d1157600080fd5b6000612d1f85828601612a71565b9250506020612d3085828601612b04565b9150509250929050565b600060208284031215612d4c57600080fd5b6000612d5a84828501612a86565b91505092915050565b600060208284031215612d7557600080fd5b6000612d8384828501612a9b565b91505092915050565b600060208284031215612d9e57600080fd5b6000612dac84828501612b04565b91505092915050565b600060208284031215612dc757600080fd5b6000612dd584828501612b19565b91505092915050565b60008060008060808587031215612df457600080fd5b6000612e0287828801612b04565b945050602085013567ffffffffffffffff811115612e1f57600080fd5b612e2b87828801612ada565b9350506040612e3c87828801612b04565b9250506060612e4d87828801612a32565b91505092959194509250565b612e6281613b62565b82525050565b612e7181613b74565b82525050565b612e8081613b80565b82525050565b612e97612e9282613b80565b613c9d565b82525050565b6000612ea882613a64565b612eb28185613a7a565b9350612ec2818560208601613bef565b612ecb81613d9e565b840191505092915050565b6000612ee182613a6f565b612eeb8185613a8b565b9350612efb818560208601613bef565b612f0481613d9e565b840191505092915050565b6000612f1a82613a6f565b612f248185613a9c565b9350612f34818560208601613bef565b80840191505092915050565b6000612f4d603283613a8b565b91507f4552433732313a207472616e7366657220746f206e6f6e20455243373231526560008301527f63656976657220696d706c656d656e74657200000000000000000000000000006020830152604082019050919050565b6000612fb3601c83613a8b565b91507f4552433732313a20746f6b656e20616c7265616479206d696e746564000000006000830152602082019050919050565b6000612ff3602483613a8b565b91507f4552433732313a207472616e7366657220746f20746865207a65726f2061646460008301527f72657373000000000000000000000000000000000000000000000000000000006020830152604082019050919050565b6000613059601983613a8b565b91507f4552433732313a20617070726f766520746f2063616c6c6572000000000000006000830152602082019050919050565b6000613099602b83613a8b565b91507f4e6f7420656e6f756768204c494e4b202d2066696c6c20636f6e74726163742060008301527f77697468206661756365740000000000000000000000000000000000000000006020830152604082019050919050565b60006130ff602c83613a8b565b91507f4552433732313a206f70657261746f7220717565727920666f72206e6f6e657860008301527f697374656e7420746f6b656e00000000000000000000000000000000000000006020830152604082019050919050565b6000613165603883613a8b565b91507f4552433732313a20617070726f76652063616c6c6572206973206e6f74206f7760008301527f6e6572206e6f7220617070726f76656420666f7220616c6c00000000000000006020830152604082019050919050565b60006131cb602a83613a8b565b91507f4552433732313a2062616c616e636520717565727920666f7220746865207a6560008301527f726f2061646472657373000000000000000000000000000000000000000000006020830152604082019050919050565b6000613231602983613a8b565b91507f4552433732313a206f776e657220717565727920666f72206e6f6e657869737460008301527f656e7420746f6b656e00000000000000000000000000000000000000000000006020830152604082019050919050565b6000613297602083613a8b565b91507f4552433732313a206d696e7420746f20746865207a65726f20616464726573736000830152602082019050919050565b60006132d7602c83613a8b565b91507f4552433732313a20617070726f76656420717565727920666f72206e6f6e657860008301527f697374656e7420746f6b656e00000000000000000000000000000000000000006020830152604082019050919050565b600061333d602983613a8b565b91507f4552433732313a207472616e73666572206f6620746f6b656e2074686174206960008301527f73206e6f74206f776e00000000000000000000000000000000000000000000006020830152604082019050919050565b60006133a3602f83613a8b565b91507f4552433732314d657461646174613a2055524920717565727920666f72206e6f60008301527f6e6578697374656e7420746f6b656e00000000000000000000000000000000006020830152604082019050919050565b6000613409601f83613a8b565b91507f4f6e6c7920565246436f6f7264696e61746f722063616e2066756c66696c6c006000830152602082019050919050565b6000613449602183613a8b565b91507f4552433732313a20617070726f76616c20746f2063757272656e74206f776e6560008301527f72000000000000000000000000000000000000000000000000000000000000006020830152604082019050919050565b60006134af603183613a8b565b91507f4552433732313a207472616e736665722063616c6c6572206973206e6f74206f60008301527f776e6572206e6f7220617070726f7665640000000000000000000000000000006020830152604082019050919050565b61351181613bd6565b82525050565b61352861352382613bd6565b613ca7565b82525050565b600061353a8285612e86565b60208201915061354a8284613517565b6020820191508190509392505050565b60006135668285612f0f565b91506135728284612f0f565b91508190509392505050565b60006020820190506135936000830184612e59565b92915050565b60006080820190506135ae6000830187612e59565b6135bb6020830186612e59565b6135c86040830185613508565b81810360608301526135da8184612e9d565b905095945050505050565b60006060820190506135fa6000830186612e59565b6136076020830185613508565b81810360408301526136198184612e9d565b9050949350505050565b60006020820190506136386000830184612e68565b92915050565b60006020820190506136536000830184612e77565b92915050565b600060408201905061366e6000830185612e77565b61367b6020830184613508565b9392505050565b60006080820190506136976000830187612e77565b6136a46020830186613508565b6136b16040830185612e59565b6136be6060830184613508565b95945050505050565b600060208201905081810360008301526136e18184612ed6565b905092915050565b600060808201905081810360008301526137038187612ed6565b90506137126020830186613508565b61371f6040830185613508565b61372c6060830184613508565b95945050505050565b6000602082019050818103600083015261374e81612f40565b9050919050565b6000602082019050818103600083015261376e81612fa6565b9050919050565b6000602082019050818103600083015261378e81612fe6565b9050919050565b600060208201905081810360008301526137ae8161304c565b9050919050565b600060208201905081810360008301526137ce8161308c565b9050919050565b600060208201905081810360008301526137ee816130f2565b9050919050565b6000602082019050818103600083015261380e81613158565b9050919050565b6000602082019050818103600083015261382e816131be565b9050919050565b6000602082019050818103600083015261384e81613224565b9050919050565b6000602082019050818103600083015261386e8161328a565b9050919050565b6000602082019050818103600083015261388e816132ca565b9050919050565b600060208201905081810360008301526138ae81613330565b9050919050565b600060208201905081810360008301526138ce81613396565b9050919050565b600060208201905081810360008301526138ee816133fc565b9050919050565b6000602082019050818103600083015261390e8161343c565b9050919050565b6000602082019050818103600083015261392e816134a2565b9050919050565b600060208201905061394a6000830184613508565b92915050565b60006040820190506139656000830185613508565b6139726020830184613508565b9392505050565b600060a08201905061398e6000830188613508565b61399b6020830187613508565b6139a86040830186613508565b81810360608301526139ba8185612ed6565b90506139c96080830184613508565b9695505050505050565b6000604051905081810181811067ffffffffffffffff821117156139fa576139f9613d6f565b5b8060405250919050565b600067ffffffffffffffff821115613a1f57613a1e613d6f565b5b601f19601f8301169050602081019050919050565b600067ffffffffffffffff821115613a4f57613a4e613d6f565b5b601f19601f8301169050602081019050919050565b600081519050919050565b600081519050919050565b600082825260208201905092915050565b600082825260208201905092915050565b600081905092915050565b6000613ab282613bd6565b9150613abd83613bd6565b9250827fffffffffffffffffffffffffffffffffffffffffffffffffffffffffffffffff03821115613af257613af1613ce2565b5b828201905092915050565b6000613b0882613bd6565b9150613b1383613bd6565b925082613b2357613b22613d11565b5b828204905092915050565b6000613b3982613bd6565b9150613b4483613bd6565b925082821015613b5757613b56613ce2565b5b828203905092915050565b6000613b6d82613bb6565b9050919050565b60008115159050919050565b6000819050919050565b60007fffffffff0000000000000000000000000000000000000000000000000000000082169050919050565b600073ffffffffffffffffffffffffffffffffffffffff82169050919050565b6000819050919050565b82818337600083830152505050565b60005b83811015613c0d578082015181840152602081019050613bf2565b83811115613c1c576000848401525b50505050565b60006002820490506001821680613c3a57607f821691505b60208210811415613c4e57613c4d613d40565b5b50919050565b6000613c5f82613bd6565b91507fffffffffffffffffffffffffffffffffffffffffffffffffffffffffffffffff821415613c9257613c91613ce2565b5b600182019050919050565b6000819050919050565b6000819050919050565b6000613cbc82613bd6565b9150613cc783613bd6565b925082613cd757613cd6613d11565b5b828206905092915050565b7f4e487b7100000000000000000000000000000000000000000000000000000000600052601160045260246000fd5b7f4e487b7100000000000000000000000000000000000000000000000000000000600052601260045260246000fd5b7f4e487b7100000000000000000000000000000000000000000000000000000000600052602260045260246000fd5b7f4e487b7100000000000000000000000000000000000000000000000000000000600052604160045260246000fd5b6000601f19601f8301169050919050565b613db881613b62565b8114613dc357600080fd5b50565b613dcf81613b74565b8114613dda57600080fd5b50565b613de681613b80565b8114613df157600080fd5b50565b613dfd81613b8a565b8114613e0857600080fd5b50565b613e1481613bd6565b8114613e1f57600080fd5b5056fea26469706673582212209991b5c4ffce16fbf012a83f0065384e7a769c9722c0bddb9b9db358817a1d6864736f6c63430008000033",
  "immutableReferences": {
    "2538": [
      {
        "length": 32,
        "start": 4677
      },
      {
        "length": 32,
        "start": 9041
      }
    ],
    "2540": [
      {
        "length": 32,
        "start": 3305
      },
      {
        "length": 32,
        "start": 9101
      }
    ]
  },
  "source": "// SPDX-License-Identifier: MIT\n\npragma solidity ^0.8.0;\n\n// const RINKEBY_VRF_COORDINATOR = '0xb3dCcb4Cf7a26f6cf6B120Cf5A73875B7BBc655B'\n// const RINKEBY_LINKTOKEN = '0x01BE23585060835E02B77ef475b0Cc51aA1e0709'\n// const RINKEBY_KEYHASH = '0x2ed0feb3e7fd2022120aa84fab1945545a9f2ffc9076fd6156fa96eaff4c1311'\n\nimport \"@openzeppelin/contracts/token/ERC721/ERC721.sol\";\nimport \"./link/VRFConsumerBase.sol\";\nimport \"@openzeppelin/contracts/access/Ownable.sol\";\nimport \"@openzeppelin/contracts/utils/Strings.sol\";\nimport \"@openzeppelin/contracts/utils/math/SafeMath.sol\";\n\ncontract TrophyChar is ERC721, VRFConsumerBase {\n    using SafeMath for uint256;\n    using Strings for string;\n    bytes32 public keyHash;\n    address public VRFCoordinator;\n    uint256 internal fee;\n    uint256 public randomResult;\n    address public Linktoken;\n    uint256 public tokensCount;\n    address public add;\n\n    struct Trophy {\n        uint256 tokenId;\n        uint256 rarity;\n        uint256 worth;\n        string name;\n        uint256 levelPass;\n    }\n\n    Trophy[] public trophies;\n    // mappings will go here\n    mapping(bytes32 => string) requestToTrophyName;\n    mapping(bytes32 => uint256) requestToLevel;\n    mapping(bytes32 => address) requestToSender;\n    mapping(bytes32 => address) requestAddress;\n    mapping(bytes32 => uint256) requestToTokenId;\n    mapping(address => mapping(uint256 => Trophy)) public usersNft;\n    mapping(address => uint256) public usersNftCount;\n\n    constructor(\n        address _VRFCoordinator,\n        address _LinkToken,\n        bytes32 _keyHash\n    )\n        public\n        VRFConsumerBase(_VRFCoordinator, _LinkToken)\n        ERC721(\"TrophyChar\", \"TRP\")\n    {\n        VRFCoordinator = _VRFCoordinator;\n        keyHash = _keyHash;\n        Linktoken = _LinkToken;\n        fee = 0.0001 * 10**18; // 0.1 LINK\n    }\n\n    function requestNewRandomTrophy(\n        uint256 userProvidedSeed,\n        string memory name,\n        uint256 levelPass,\n        address walletAddress\n    ) public returns (bytes32) {\n        require(\n            LINK.balanceOf(address(this)) >= fee,\n            \"Not enough LINK - fill contract with faucet\"\n        );\n        bytes32 requestId = requestRandomness(keyHash, fee, userProvidedSeed);\n        requestToTrophyName[requestId] = name;\n        requestToLevel[requestId] = levelPass;\n        requestToSender[requestId] = msg.sender;\n        requestAddress[requestId] = walletAddress;\n\n        return requestId;\n    }\n\n    function fulfillRandomness(bytes32 requestId, uint256 randomNumber)\n        internal\n        override\n    {\n        //define the NFT\n        uint256 newId = trophies.length;\n        uint256 rarity = (randomNumber % 100);\n        uint256 worth = ((randomNumber % 1000) / 100);\n\n        trophies.push(\n            Trophy(\n                newId,\n                rarity,\n                worth,\n                requestToTrophyName[requestId],\n                requestToLevel[requestId]\n            )\n        );\n\n        tokensCount++;\n        add = requestAddress[requestId];\n        usersNftCount[requestAddress[requestId]] =\n            usersNftCount[requestAddress[requestId]] +\n            1;\n\n        usersNft[requestAddress[requestId]][\n            usersNftCount[requestAddress[requestId]]\n        ] = Trophy(\n            newId,\n            rarity,\n            worth,\n            requestToTrophyName[requestId],\n            requestToLevel[requestId]\n        );\n\n        _safeMint(requestToSender[requestId], newId);\n    }\n\n    // function setTokenURI(uint256 tokenId, string memory _tokenURI) public {\n    //     require(\n    //         _isApprovedOrOwner(_msgSender(), tokenId),\n    //         \"ERC721: transfer caller is not owner nor approved\"\n    //     );\n    //     _setTokenURI(tokenId, _tokenURI);\n    // }\n\n    function getTokenURI(uint256 tokenId) public view returns (string memory) {\n        return tokenURI(tokenId);\n    }\n\n    function getLevel(uint256 tokenId) public view returns (uint256) {\n        return sqrt(trophies[tokenId].rarity);\n    }\n\n    function getNumberOfTrophies() public view returns (uint256) {\n        return trophies.length;\n    }\n\n    function getTrophyOverView(uint256 tokenId)\n        public\n        view\n        returns (\n            string memory,\n            uint256,\n            uint256,\n            uint256\n        )\n    {\n        return (\n            trophies[tokenId].name,\n            trophies[tokenId].rarity + trophies[tokenId].worth,\n            getLevel(tokenId),\n            trophies[tokenId].rarity\n        );\n    }\n\n    function getTrophyStats(uint256 tokenId)\n        public\n        view\n        returns (uint256, uint256)\n    {\n        return (trophies[tokenId].rarity, trophies[tokenId].worth);\n    }\n\n    function sqrt(uint256 x) internal view returns (uint256 y) {\n        uint256 z = (x + 1) / 2;\n        y = x;\n        while (z < y) {\n            y = z;\n            z = (x / z + z) / 2;\n        }\n    }\n}",
  "sourcePath": "/Users/eliojordanlopes/Desktop/Blockchain/wormhole/RPG-Solidity-Game/blockchain/src/contracts/TrophyChar.sol",
  "compiler": {
    "name": "solc",
    "version": "0.8.0+commit.c7dfd78e.Emscripten.clang"
  },
  "schemaVersion": "3.4.3",
  "updatedAt": "2022-05-22T11:35:00.714Z",
  "networkType": "ethereum",
  "devdoc": {
    "kind": "dev",
    "methods": {
      "approve(address,uint256)": {
        "details": "See {IERC721-approve}."
      },
      "balanceOf(address)": {
        "details": "See {IERC721-balanceOf}."
      },
      "getApproved(uint256)": {
        "details": "See {IERC721-getApproved}."
      },
      "isApprovedForAll(address,address)": {
        "details": "See {IERC721-isApprovedForAll}."
      },
      "name()": {
        "details": "See {IERC721Metadata-name}."
      },
      "ownerOf(uint256)": {
        "details": "See {IERC721-ownerOf}."
      },
      "safeTransferFrom(address,address,uint256)": {
        "details": "See {IERC721-safeTransferFrom}."
      },
      "safeTransferFrom(address,address,uint256,bytes)": {
        "details": "See {IERC721-safeTransferFrom}."
      },
      "setApprovalForAll(address,bool)": {
        "details": "See {IERC721-setApprovalForAll}."
      },
      "supportsInterface(bytes4)": {
        "details": "See {IERC165-supportsInterface}."
      },
      "symbol()": {
        "details": "See {IERC721Metadata-symbol}."
      },
      "tokenURI(uint256)": {
        "details": "See {IERC721Metadata-tokenURI}."
      },
      "transferFrom(address,address,uint256)": {
        "details": "See {IERC721-transferFrom}."
      }
    },
    "version": 1
  },
  "userdoc": {
    "kind": "user",
    "methods": {},
    "version": 1
  }
}